:020000041000EA
:1000000000B5324B212058609868022188439860DF
:10001000D860186158612E4B002199600221596106
:100020000121F02299502B49196001219960352056
:1000300000F044F80222904214D00621196600F024
:1000400034F8196E01211966002018661A6600F04E
:100050002CF8196E196E196E052000F02FF8012189
:100060000842F9D1002199601B49196000215960AB
:100070001A491B48016001219960EB211966A021F2
:10008000196600F012F800219960164914480160C1
:100090000121996001BC002800D000471248134993
:1000A000086003C880F30888084703B5996A0420EC
:1000B0000142FBD001200142F8D103BD02B5186610
:1000C0001866FFF7F2FF186E186E02BD00000240BE
:1000D000000000180000070000035F00212200005C
:1000E000F4000018222000A00001001008ED00E03C
:1000F00000000000000000000000000074B24E7A12
:1001000000200420F7010010C3010010C5010010F9
:10011000C1010010C1010010C1010010C101001097
:10012000C1010010C1010010C1010010559500105F
:10013000C1010010C1010010B1950010F587001039
:10014000CD010010CD010010CD010010CD01001037
:10015000CD010010CD010010CD010010CD01001027
:10016000CD010010CD010010CD010010CD01001017
:10017000CD010010CD010010CD010010CD01001007
:10018000CD010010CD010010CD010010CD010010F7
:10019000CD010010CD010010CD010010CD010010E7
:1001A000CD010010CD010010CD010010CD010010D7
:1001B000CD010010CD010010CD010010CD010010C7
:1001C00000BE00BE00BE00BE00BE00BE00F04BF888
:1001D000103800BEF2EB887184090610A4090610DD
:1001E0003402001090A31AE700202149086006C8D5
:1001F00081F3088810471F48006800282FD10DA4FC
:100200000ECC002902D000F012F8F9E71A491B4A77
:10021000002000E001C19142FCD1194988471949E9
:1002200088471949884700BEFDE701C901C29A42C3
:10023000FBD37047A4090610C00000209C110020C9
:10024000801A06100000042000000420801A061006
:1002500000100420001004200000000070470B482C
:1002600003F014FD0047EFF30580C0B270470000B3
:1002700008ED00E0000000D0A0110020B8740220BA
:10028000691C00100D0300108D1D00105756000052
:1002900006005250ABB36053D8B804100600525059
:1002A000861C0302E8B80410060052505422A29D96
:1002B000F8B8041005005250DE65F468801A061084
:1002C000F8B5C04610B5064C2378002B07D1054B76
:1002D000002B02D0044800E000BF0123237010BDB2
:1002E000B01C002000000000A0B00410044B10B5AA
:1002F000002B03D00349044800E000BF10BDC046F6
:1003000000000000B41C0020A0B0041000B587B0AD
:100310001D4805AB04AA03A900F0F2FA002803D196
:1003200019491A4801F034FD059A0499039800F020
:10033000ABFA174B012200930021062001F046FD85
:1003400008F038FA05F084FD124801F0ABF809F026
:10035000B1F81F211A2000F08FFB00221A20110093
:1003600000F0A2FB00211A2000F0B6FBE0220A4BAD
:10037000D2011B681340094A136008F047FA00F0E5
:1003800029F808F063FAFEE788070200A0B004101D
:10039000406BED07B80B000000C0044000D00440E3
:1003A00010B50A4805F0A0FC00F024F8002800D0A1
:1003B00010BD002300220121054808F033FCFA217A
:1003C000890008F0A9FC00F011F8F1E7D4B004109E
:1003D00049CB001010B50021024A034808F060FA2A
:1003E00010BDC046E4B00410A103001010B500F029
:1003F00059F910BD10B5204886B005F075FC1F4CAA
:100400000020A3680193984701001D4805F014FDE2
:10041000236902200193984701001A4805F00CFD5A
:100420000822002104A805F0F1FA174B02AA029352
:10043000164B1100039303231372636A0020019388
:1004400098470100124805F0F7FCE36A01939847CA
:10045000040001000F4805F0EFFC002C05D00E4809
:1004600005F042FC002006B010BD0C4805F03CFC35
:1004700001204042F7E7C04614B20410608A05101C
:100480002CB2041054B2041088B2041098B20410B4
:10049000A8B20410D4B204101CB30410F8B20410B3
:1004A00010B5242005F082FA041E13D00B4B036014
:1004B0000B4B83600B4B43600B4BC36011230361F9
:1004C0000A4B436110238361094BC361094B0362EB
:1004D000200010BD084805F007FCF9E708B104103A
:1004E00054B1041040B10410C8B30410DCB30410BC
:1004F00060B3041074B3041044B3041010B50028A2
:1005000001D005F077FA10BD70B500280FD006684D
:10051000300047F07DF8451C280005F047FA041E1E
:100520000AD02A00310005F077FA200070BD044897
:1005300005F0DAFB0024F8E7024805F0D5FBF4E704
:1005400088B30410A8B3041070B500280FD08668D3
:10055000300047F05DF8451C280005F027FA041E1E
:100560000AD02A00310005F057FA200070BD044877
:1005700005F0BAFB0024F8E7024805F0B5FBF4E704
:1005800088B30410A8B3041070B500280FD04668D3
:10059000300047F03DF8451C280005F007FA041E1E
:1005A0000AD02A00310005F037FA200070BD044857
:1005B00005F09AFB0024F8E7024805F095FBF4E704
:1005C00088B30410A8B3041070B500280FD0C66912
:1005D000300047F01DF8451C280005F0E7F9041E1F
:1005E0000AD02A00310005F017FA200070BD044837
:1005F00005F07AFB0024F8E7024805F075FBF4E704
:1006000088B30410A8B3041070B500280FD0066A90
:10061000300046F0FDFF451C280005F0C7F9041E18
:100620000AD02A00310005F0F7F9200070BD044817
:1006300005F05AFB0024F8E7024805F055FBF4E703
:1006400088B30410A8B304100048704700B4041025
:1006500000487047ECB30410064B10B51A68541CE0
:100660001C6013F0ADFE21000200034805F0E4FB1E
:1006700010BDC0463468002014B4041010B5002822
:1006800003D1054805F030FB10BD044805F02CFBF4
:100690000022034B1A70F7E754B4041080B404101E
:1006A000F0040020F0B5DE4657464E464546E0B51C
:1006B00099B012F089FE5C4805F016FB5B495C4876
:1006C00016F0CCF8041E00D1A9E00E2201256A44E0
:1006D0005849157016F0D6F8574A5849200016F0B8
:1006E000D1F80F2256496A442000157016F0CAF856
:1006F00000222000534916F0BDF800239846524BC3
:10070000524D9A46524B99464346022B2AD9514E96
:100710003368022B01D900232B70200016F0AEF8AD
:10072000FA20400000F0BEFE2B78002B0ED00027F0
:100730003368022B00D92F70200016F09FF8FA20A2
:10074000400000F0AFFE2B78002BF1D1200016F016
:1007500089F812F059FE19B0F0BCBB46B246A94662
:10076000A046F0BD45F0C8FE45F0C6FE042280213B
:10077000394B49001A60394A13680B42FCD0536860
:100780001B041B0C18009B4605F084F8344905F047
:100790007AF805F0A1F806000F000B000200594698
:1007A000504605F049FB5A4649460096019704A871
:1007B00003F006FA04A816F0B3F90600294916F06A
:1007C000C5FC2949300016F08DFC2849300016F090
:1007D00011FD2749300016F075FD264A26493000E4
:1007E00016F006FC01239C46E044414604AA234837
:1007F00005F022FB00233100214A200016F036F8D4
:10080000300017F071F8200016F038F8FA20400098
:1008100000F048FE2B78002B00D075E796E71948CA
:1008200005F062FA95E7C046ACB4041041C401106B
:100830008CB1041014B5041054C804101C300510F9
:1008400020B504107D06001038B50410F004002017
:100850005CB504103468002000E0044000C004408F
:100860003333533A84B504108CB5041094B5041096
:10087000A8B50410B0B50410CCB50410DCB5041054
:1008800059060010CCB40410F0B583B005000E007A
:10089000140000F0A5F9002801D003B0F0BD154FF9
:1008A00001223B0001210097053001F08FFA33004F
:1008B0002A0000940121104801F008FE21002800C0
:1008C000714303F03DFA04000C4B00220093022117
:1008D000042001F07BFA230000220121009405206E
:1008E00001F074FA3B00022200210097062001F07B
:1008F0006DFAD2E7006CDC0200800240001BB700FA
:10090000F0B5DE4657464E464546E0B5070085B091
:10091000042003930191029201F040FCFA21890026
:1009200003F00EFA32238246FF339946860056447E
:10093000B6014F4B4F4AF318072493420ED90123B7
:100940005B429C465346E144F61A4B46002BF0D1DD
:1009500000205DE0002900D186E00624210030005F
:10096000614303F0EDF9874242D0631E9846012CA3
:10097000E5D01D0065433000290003F0E1F987420E
:100980004DD0A31E9B46022C4FD02D1B29003000BA
:1009900003F0D6F987424AD0E31E9B46032C61D070
:1009A0002D1B2900300003F0CBF9874243D0231FD1
:1009B0009B46042C45D02D1B2900300003F0C0F9C4
:1009C000874240D0631F9B46052C42D02D1B290037
:1009D000300003F0B5F987423DD04346052B3FD0A8
:1009E0003000E91F03F0ACF98742B3D00624B5E725
:1009F0000029BAD1A0464246012073019B1B9B00EF
:100A00009E19019BF6001E60029B1C60039B1A60EE
:100A100005B0F0BCBB46B246A946A046F0BD0029D1
:100A2000E9D0A31E9B46022CAFD1012496E70029F2
:100A3000B2D1D846DFE70029FBD0231F9B46042C08
:100A4000B9D103248AE70029F3D0631F9B46052C04
:100A5000BCD1042482E70029EBD04346052BBFD14B
:100A600005247BE7022479E701239846C3E7C046C3
:100A700080E5F9FF804F1200094A83009446402226
:100A8000634410B51C68C0006240C024144080223A
:100A9000520113431C60034B9C466044416010BDEF
:100AA00004C00140004001400A4B80009C460423E2
:100AB0006044002901D00C230821002A00D10B003A
:100AC000026853400C221A4080235B0118430260E5
:100AD0007047C04604C00140084B80009C466044FB
:100AE000002905D080239B011843402303607047F1
:100AF000C0239B01184340230360F8E704C0014072
:100B000070B5EFF3108C72B60D4D2B68002BFCD036
:100B1000BFF35F8F0724CB08C618C05C01230C40CD
:100B2000A3401C000440034207D103433370BFF3CA
:100B30005F8F2C608CF3108870BD100001F028F9D5
:100B40002C0100D0F8B54746CE46884680B5EFF375
:100B5000108C72B6214D2C68002CFCD0BFF35F8F37
:100B60009A422CD8D4080727055D0619012417409E
:100B7000BC402C421FD007210127894609E0D40838
:100B8000055D06194C4639001440A1400C0029426D
:100B900011D001329342F2D201204042BFF35F8F65
:100BA00000220E4B1A608CF3108800280FDBC0BCAB
:100BB000B946B046F8BD2C4310003470EEE7BFF3E1
:100BC0005F8F00232B608CF3108801204042434646
:100BD000002BECD0089801F0DBF8C0462C0100D0C7
:100BE000024B18688007C00F7047C04600C006401F
:100BF0000021044B044ABFF35F8F02C39342FAD132
:100C00007047C046000100D0800100D0044A10782F
:100C1000431CDBB2172B00D9102313707047C0465A
:100C2000F104002000B5054B83B0010000931822A9
:100C30001F230348FFF786FF03B000BD0CB6041066
:100C400094630020F8B5040006200D0001F0A6FA18
:100C5000002844D02A4B2B49E21853425A418023A2
:100C6000DB039C469205284B62441A60274B1A60AE
:100C700010008B689843FBD1214B8021E3185A4226
:100C80005341234A5B0049009952062001F086FA3D
:100C90002900C00003F054F8C30921D140270121E5
:100CA000260080256162A36200232C36AD01354306
:100CB0002B60062001F072FA3900800003F040F842
:100CC0006023E26A53406E221A4080235B01334363
:100CD0001A60104B236310232B600D3BA364F8BDF7
:100CE0000D4A934203D900230C4F0D49D8E77F22C8
:100CF0001040013040089F0119003F180300CFE762
:100D00000080FCBF00C0004000E0004000F0004058
:100D10001473002001030000FEFF0000C0FF3F002D
:100D2000FFFF0000064B9C4660444342584180232D
:100D3000DB039C468005034B604418607047C04647
:100D40000080FCBF00E0004070B5040006200D00EC
:100D500001F024FA2900C00002F0F2FFC30906D016
:100D6000104A934215D900230F4D104A01E0402547
:100D7000012280206262A362002380012C3404439C
:100D80002360062001F00AFA2900800002F0D8FF53
:100D900070BD7F221040013040089D011A002D18BF
:100DA0000300E6E7FEFF0000C0FF3F00FFFF00007A
:100DB00083680B4810B584466144624409011201FE
:100DC0009A18591854684B6801209C4201D802D0E7
:100DD0000020C0B210BD12680B689A42F9D8F7E73C
:100DE000FFFFFF0F0A4B1968EFF3108072B60A6815
:100DF000002AFCD0BFF35F8F1B68BFF35F8F002218
:100E00001A6080F3108840BF002000217047C04660
:100E1000F4720020F8B557464E464546DE46E0B52A
:100E200099460CAB1C780DAB1B78060090469A4691
:100E30000768002C11D1BC7B002C42D065003B68B8
:100E40002D19033D59194B78BB73002B00D1FB734F
:100E500000238B704B700B7004E065003B682D190C
:100E6000033D5919B2682A4B94464246E3181B01C8
:100E700063441A604A465A600A9A9A600B9ADA608A
:100E800000238B704B700B707B7B9B46002B2BD011
:100E900022005946B8687B6898473A68002816D0FF
:100EA0005B4658465B005B445519033BA870D1185C
:100EB000D35C002B00D06B705B460C707B73A3453A
:100EC00013D0F0BCBB46B246A946A046F8BD5B466F
:100ED0005B005B44033BD3189C705119525D002AA0
:100EE00000D05A705B460B707C7342464B46307D97
:100EF00000F026FC051E06D05346002B03D121002E
:100F0000306800F073FE0E9B002BDAD01D70D8E71E
:100F1000FFFFFF0FF0B5DE464E465746454600231D
:100F2000E0B58DB00A936B4B8200D3580B90994675
:100F300000239B464B46079300F0A2FB079C06004C
:100F40000F006268EFF3108572B61368002BFCD0B7
:100F500022000794BFF35F8F2468637B9946002BC0
:100F600067D092685C4B90464B441B0198444346C3
:100F70001A685B6810001900801BB94100295FDD09
:100F80000B9800F0DDFB00230026984600279A46C8
:100F9000079C6368BFF35F8F5A461A6085F3108819
:100FA0005346002B08D10028C6D10DB0F0BCBB467B
:100FB000B246A946A046F0BD0A9B414618024B46E0
:100FC0001843D047089009916268EFF3108572B614
:100FD0001368002BFCD00794BFF35F8F0899099A20
:100FE000002A48DB114303D0079B1B69002B5DD10E
:100FF000079B1B68D97B002907D04A005218196843
:101000008C4649466244033A51704A46DA734B466D
:10101000079A013BD168CA5C0132CA545B46079A01
:1010200013615368BFF35F8F5A461A6085F31088C7
:1010300082E700230026984600279A460020A7E76B
:10104000002901D100289BD10021200000F050FD93
:1010500043461E685F689B68079A9A464346DB686A
:101060009846D3684B44013B1B780A931B02034309
:10107000136100208CE72369002BB9D033003C00BA
:101080005B1A94411A002300A74219D89F421BD033
:10109000594604910121039149460291414601912B
:1010A000514607980091FFF7B5FEB7E700F0E8FA60
:1010B000089A099B06000F0092197B419942E5D9D5
:1010C00001225242D317E3E79642E1D9012252426C
:1010D000D317DDE7586E0020FFFFFF0FF8B5574626
:1010E0004E464546DE46E0B5404D81468A466A6832
:1010F000EFF3108872B61368002BFCD0BFF35F8F3C
:101100002E68B47B002C39D0670033683F19033F49
:10111000DB195A78B273002A00D1F273A968344AF5
:101120008C464946A2181201624411605146516032
:10113000304991600021D160997059701970737BAA
:101140009B46002B35D022001900B0687368984781
:101150003268002820D05B4658465B005B44D719B4
:10116000033BB870D118D35C002B00D07B705B467A
:101170000C7073735C451DD0002626E06B68BFF3CE
:101180005F8F1C6088F3108801204042F0BCBB4692
:10119000B246A946A046F8BD5B465B005B44033BF4
:1011A000D3189C70D119D25D002A00D05A705B46CA
:1011B0000B7074734A465346287D00F0C1FA061E30
:1011C000DAD02100286800F011FDEB681B19013B03
:1011D00019786B68BFF35F8F00221A6088F310885C
:1011E0000020002ED2D108022043CFE7F4040020D3
:1011F000FFFFFF0FE50D001010B5124C6368002BC8
:1012000004D00A21104800F029FB10BD23000F4A2A
:101210001021206800F08AFB032000F025FA03204B
:1012200000F0FEFA03200A4900F044FAFFF7EEFC52
:10123000084B9C46032360442375074B8000606085
:10124000DC60DEE7F4040020F4720020B10D001031
:10125000150F001040000034586E00200048704701
:10126000F4040020F0B557464E464546DE46E0B54C
:1012700085B0019310AB1B780600039300239A46B8
:10128000984600927268EFF3108972B61368002BCB
:10129000FCD0BFF35F8F3568AC7B002C49D0670072
:1012A0002B683F19033FDB195A78AA73002A00D133
:1012B000EA73B1684F4A8C4600980199A21812014E
:1012C0006244106051600E9991600F99D16042465E
:1012D0009A705A701A706B7B9B46002B45D0220087
:1012E0001900A8686B6898472A68002830D05B46C8
:1012F00058465B005B44D719033BB870D118D35CE8
:10130000002B00D07B705B460C706B735C452DD05E
:10131000F3681B19013B18787368BFF35F8F42466F
:101320001A6089F310885346002B2CD10002204309
:1013300007E07368BFF35F8F1C6089F3108801209A
:10134000404205B0F0BCBB46B246A946A046F0BD3F
:101350005B465B005B44033BD3189C70D119D25DA4
:10136000002A00D05A705B460B706C73307D009A77
:10137000019B00F0E5F982460028C9D021003068C1
:1013800000F034FCC4E7039B002B30D00E9B002000
:101390000F999847030004000D000B4327D0002944
:1013A0000DDA0098019902000B00121BAB41994223
:1013B00013D818D000920193039B9A4662E700F07D
:1013C0005FF902000B00A4185D4100940195A94249
:1013D00003D8F1D100998A42EED901235B42DC1790
:1013E00000930194E8E700999142E3D9F5E70020E2
:1013F000A7E7C046FFFFFF0FF0B504000D0006266B
:101400007642F717C64636196F4100B58F4213D89A
:1014100010D000F035F932003B00121A8B41002B3E
:1014200014DC002B37D02900200000F033F980BCF9
:10143000B846F0BD8642ECD90026002700F020F91E
:1014400032003B00121A8B41002BEADD30003900DC
:10145000FFF744FE0028E6DB00239846BC460F4A0F
:101460000F4F7B6A9C4504D8B96A8E42DBD99C45F4
:10147000D9D11168EFF3108072B60B68002BFCD045
:10148000BFF35F8F1368BFF35F8F4146196080F32E
:10149000108820BFE5E7002AC5D0D7E7F472002006
:1014A0000040054070B5060000F0EAF8FA2204009A
:1014B0000D00002330000021920004F0ADF9001966
:1014C00069418D4205D802D0FFF796FF70BD844276
:1014D000FAD901204042C117F6E7C046F8B5CE461A
:1014E000474680B506000C00FFF7F8FD00280CDC2D
:1014F0002D4B0020596A8C4203D89B6A0130B342BD
:1015000045D3C0BCB946B046F8BD20BF274D6A6878
:10151000EFF3108772B61368002BFCD0BFF35F8F18
:101520002B68C1B29C465B7B8B4235D0FF230340C6
:101530005A00914662461268994490464A4642448F
:10154000033A9278002A1DD0EA68000A9046434484
:10155000013B1B78C0B2834221D06B68BFF35F8F21
:1015600000221A6087F310880F4A0020536A9C42B9
:10157000C7D8926A0130B242C3D2E01A421E9041EB
:10158000C0B2BEE72B699842E7D12A61E5E7601A4D
:10159000431E9841C0B2B4E7FF230340D4E760463E
:1015A00000F024FBD9E7C04600400540F4040020C9
:1015B000F0B5D6464F464646C0B5EFF305833F2209
:1015C000134018001038EFF3108C72B6204D2A68C3
:1015D000002AFCD0BFF35F8F0122110081401D4C17
:1015E000884661631C4917000E788A463100C14065
:1015F0000F400A4209D1BFF35F8F2F608CF3108830
:10160000E0BCBA46B146A846F0BD14498200646AFF
:1016100051588C420FD3124BD25843469E435346E7
:101620001E70BFF35F8F00232B608CF31088002A9D
:10163000E6D09047E4E70B4A9B00904643441A6883
:101640001A60BFF35F8F00232B608CF31088D7E7FD
:10165000280100D000400540B4740220047300202B
:1016600084620020D03F054010B50100024A0348C3
:10167000FFF746FA10BDC04628B60410AF7402202A
:10168000034B596A0A00986A596A8A42FAD170472C
:1016900000400540064A536A9942FCD807D1044BE2
:1016A00002E05A6A914202D19A6A8242F9D37047A3
:1016B0000040054070B504000D00EFF3108672B6CF
:1016C0001A4A1368002BFCD0BFF35F8F002D1BD08C
:1016D000200000F083FD164981420AD0200000F06E
:1016E00085FD0121200000F05FFD0123A340114A88
:1016F0001360114BA400E550BFF35F8F00220B4B2A
:101700001A6086F3108870BD0B4BA200D5500122E1
:10171000A2400A4920000B7893430B70044900F063
:101720008FFD0021200000F03FFDE5E7280100D0FB
:10173000B11500103860054084620020B4740220A6
:10174000F0B54F46D6464646C0B507002F4C616AF5
:101750000D00A66A616AA942FAD18B4208D805D069
:101760000120E0BCBA46B146A846F0BDB242F7D966
:10177000EFF3108A72B6264801680029FCD0BFF347
:101780005F8F0125BD402349204C88460978894652
:101790002943C9B28C46414660460870391D1E482F
:1017A000890065630A51B9000B50216A0020294263
:1017B00019D0616A0800A66A616A8142FAD18B4237
:1017C00019D801D1B24216D8CC451DD00F4B1F20DD
:1017D0001D625D6301230740BB40104A1E38136041
:1017E00043464A461A70BFF35F8F0022084B1A60C7
:1017F0008AF31088B5E70020BFF35F8F0022044B07
:101800001A608AF31088ACE70120ECE7004005403D
:10181000280100D0B47402200473002080E200E0AC
:10182000EFF3108C72B60A490B68002BFCD0BFF3A3
:101830005F8F01238340074A0748136202789A4367
:101840000270BFF35F8F00230B608CF3108870472A
:10185000280100D000400540B4740220024B9C4691
:1018600061448900016070474000003410B50400F5
:10187000FFF7CCF901002000FFF7F0FFFF232371F1
:10188000BFF35F8F10BDC04610B50400FFF7BEF96F
:1018900001002000FFF7E2FFFF23A380BFF35F8F6B
:1018A00010BDC04610B504000120FFF7BBF9044B82
:1018B0009C46604480002060BFF35F8F10BDC0462F
:1018C0004000003470B5050014001600002915D042
:1018D0000C00002A12D080686B689847296800289D
:1018E0000ED073009B196200033B1219CB18033A08
:1018F0009C7088188A5C002A15D10670200070BD83
:1019000063001B197200033B9219CB18033A9E70B7
:1019100088188A5C002A02D104703400EEE75A70FD
:1019200004703400EAE75A700670E7E730B5836068
:101930000023CCB243730133047342608373C473D6
:101940000D000068012C06D9421C0133DBB2137074
:1019500003329C42F9D1FF2129404B005918002342
:1019600040180338437030BDF8B5CE4647460600F0
:101970000C0080B5002907D04D0003686D18033DA9
:101980005A195778002F04D12000C0BCB946B04680
:10199000F8BD7900C9190339884643445978894606
:1019A00000215970517073683A002100806898478F
:1019B0003368002814D042469A18947059195B5D18
:1019C000002B00D053700F70270049463000FFF7FE
:1019D000CBFF390002003000FFF774FF0400D3E7AB
:1019E000424641465D19AF709A185B5C002B00D0EF
:1019F0006B701470E9E7C046F0B557464546DE46C1
:101A00004E46E0B50D006B0001685B19DF1E040057
:101A1000C85D83B00192CA1900284CD043001B183E
:101A2000033BCB185E78B446002E16D1019E002EE3
:101A30003ED0E67B002E04D073009B19CB18033BED
:101A40005D70E57300282FD10023537003B0F0BC04
:101A5000BB46B246A946A046F0BD72006244033AB6
:101A600089184A78904600224A7091465A700100BF
:101A700032002000FFF726FF43468246002B07D0A6
:101A80005B0021684344033BCB185A78002A16D1E7
:101A9000424651462000FFF715FF2168019BCA19F5
:101AA000002BC6D10028CFD043001B18033BCB1816
:101AB00000219970C8E7019B002BBAD1C4E7500000
:101AC000801803380918487883464846487058708B
:101AD00041462000FFF7F6FE594680462000FFF7FA
:101AE00043FF414602002000FFF7ECFE8046CFE7AF
:101AF000F0B557464546DE464E46E0B583B0019107
:101B0000457B04006B0000685B19DF1EC15DC219D4
:101B100000294ED04B005B18033BC3185E78B446D7
:101B2000002E18D1019E002E40D0E67B002E04D05E
:101B300073009B19C318033B5D70E573002931D115
:101B4000002328005370617303B0F0BCBB46B2465B
:101B5000A946A046F0BD72006244033A801842785C
:101B600090460022427091465A7020003200FFF7E2
:101B7000A9FE43468246002B07D05B002168434400
:101B8000033BCB185A78002A17D142465146200011
:101B9000FFF798FE019B01002068C219002BC4D1F9
:101BA0000029CDD04B005B18033BC3180020987070
:101BB000C6E7019B002BB8D1C2E75000801803385C
:101BC00009184878834648464870587041462000B6
:101BD000FFF778FE594680462000FFF7C5FE4146D4
:101BE00002002000FFF76EFE8046CEE770B50400CD
:101BF00000292CD0437B8B422ED00568480040182A
:101C0000033828188278002A21D053009B18033B00
:101C1000EA5CEE188A4202D11BE0002A08D0530089
:101C20009B18033BEB185A788A42F6D142785A70D7
:101C300000230122837043702000FFF7DDFE617BEB
:101C400002002000FFF73EFE6073012000E000204C
:101C500070BD43783370EBE701221900FFF7CCFE2B
:101C600060730120F4E7C0462C4B2D4A70B51A6012
:101C70002C4A2D4B2D491A6014008B689C43FBD1D4
:101C80002B4D2C4EB54208D2013E761BB60808CD2E
:101C9000984723000134B342F9D100F021F9264AD4
:101CA000214B1A60214A9368DB43DB01DD09002BDD
:101CB000F9D14022214B224C224E9A675A671A676B
:101CC000DA66B44208D223682000002B20D0083402
:101CD000FFF7DAFDB442F6D31B4E1C4CC022A168BC
:101CE000300003F099FEA660FEF782FF00F0DCFBF7
:101CF000FFF782FA164C174EB44208D2013E361B4B
:101D0000B60808CC98472B0001359E42F9D170BD2A
:101D10000834FFF7ABFDB442D5D3DDE700E0004067
:101D2000BFCDFBFEFE7F3C0000F0004000C0004045
:101D30008011002090110020FFFFFF0100F0014002
:101D400078110020801100200000002000ED00E04C
:101D5000901100209C110020094A030010680028FF
:101D600005D00849C3188B4207D81360704706484E
:101D70000449C31810608B42F7D901204042F5E7AF
:101D80004868002000000420B874022000BEFDE76F
:101D90000FB400B5084883B003F0A6FF049B002BE6
:101DA00007D005A91800019101F050FF034803F086
:101DB0009BFF00BEFDE7C0464CB60410DCEA0510F0
:101DC00010B50148FFF7E4FF5CB60410F0B54546D6
:101DD000DE4657464E46E0B583B001920C9A0500A8
:101DE00088469A4200D974E01A0E93461E023000CB
:101DF000002359460C9A01F0E5FF374B6C009C46D6
:101E00006419A400644463680700834200D26060E0
:101E10002B1FDBB29946012B35D9C02380229B01B1
:101E2000234312011A602D4BAD0059599A460029DF
:101E300005D0586901F084FF01300138FDD1019AC5
:101E4000236852015340E0221A4080235B01234360
:101E50001A604A46012A2FD9802380229B012343FE
:101E600012011A60300000233A005946676001F001
:101E7000A9FF53465851012003B0F0BCBB46B246FF
:101E8000A946A046F0BD4346012BC6D1C02303227C
:101E90009B0123431A60023AA3681A42FCD0019ABC
:101EA000236852015A40E0231A4080235B012343F8
:101EB0001A600A4AAD009246424621685140032208
:101EC0000A401A60012243469A40A3681A42FCD095
:101ED000C2E70020D0E7C0460080004098630020A1
:101EE00030B50C2083B000F045FBFEF779FE0028EA
:101EF0000ED0944B944A1A605A609A60DA601A6164
:101F00005A619A61DA611A62904A5A6203B030BD2E
:101F10008F4CA06700F082FB01228E4B1A60636C2D
:101F2000012BFCD103228C4B1A60894A936B012B45
:101F3000FCD102240121894A89480533009400F02C
:101F4000C5FA0523874A01218748009400F0BEFAAC
:101F5000864B5A68FF2A02D8802252005A6080229B
:101F6000784C7D4B21691201804D1A60002905D003
:101F7000606901F0E5FE01300138FDD1E0217B4BC5
:101F800002201A681140802252012A431160196808
:101F9000484003210140116004219A681142FCD09D
:101FA0008022802192012A4309011160802252007F
:101FB0005A606F4B23616F4B5968FF2900D85A60F4
:101FC0000321644A6B4B116002399A681142FCD0BC
:101FD000E0201A681040802252011A4310601868ED
:101FE0004840032101400220116062498A68104282
:101FF000FCD0802292011343802212011A608022B9
:102000005D4B52004A6063615C4B5968FF2900D800
:102010005A6080225A4BE1691201584D1A6000291A
:1020200005D0606901F08CFE01300138FDD1E0225D
:1020300052490B681A4080235B012B431A608023AE
:1020400080229B012B4312011A6080223E4B5200DA
:102050004A60E3614B4B5968FF2900D85A608022DF
:10206000494B216A1201474D1A60002905D0606969
:1020700001F066FE01300138FDD1E02241490B68D4
:102080001A4080235B012B431A60802380229B012E
:102090002B4312011A60802380225B004B602A4B85
:1020A000D2022362394B5968914200D25A60802291
:1020B000374B616A1201354D1A60002905D06069FD
:1020C00001F03EFE01300138FDD1E0222F490B68BE
:1020D0001A4080235B012B431A60802380229B01DE
:1020E0002B4312011A608023DB024B60174B6362A3
:1020F000284B5A68FF2A02D8802252005A60802258
:10210000254BA1691201234D1A60002905D0606991
:1021100001F016FE01300138FDD1E0221D490B68A7
:102120001A4080235B012B431A60802380229B018D
:102130002B4312011A6080235B004B600E4BA3619E
:10214000E4E6C04698630020006CDC021BB7000088
:10215000008000403CB0004030B00040002F685983
:102160000080024000389C1C00C0024030800040CB
:10217000001BB7003C80004040597307548000406A
:1021800054B000406080004060B000406C8000406F
:102190006CB000404880004048B00040014B8000D7
:1021A000C05870479863002001238340002904D061
:1021B000034A1360034A13607047034A1360FBE746
:1021C00080E200E000E100E080E100E001238340E4
:1021D000014A13607047C04600E200E0024B103035
:1021E0009B688000C058704700ED00E070B50D009E
:1021F000EFF3108672B60F4A1368002BFCD0BFF3C2
:102200005F8F0D4B10309B6884001B590B4A934223
:1022100003D09D4201D0FFF7D3FD074B9B681D51B2
:10222000BFF35F8FBFF35F8F0022024B1A6086F30C
:10223000108870BD240100D000ED00E0CD01001039
:10224000F0B5DE4657464E464546E0B50C0083B035
:10225000EFF3108A72B65A4A1368002BFCD0BFF312
:102260005F8F1022914681444A46564B96009B68E8
:102270009D59554B98469D4205D0A54216D0534FC7
:10228000EB1B2F2B14D94F4B9B689D51BFF35F8FD6
:10229000BFF35F8F00224A4B1A608AF3108803B0A5
:1022A000F0BCBB46B246A946A046F0BD1D00EAE719
:1022B000012383409B465A46454B1B681A400092B7
:1022C0005A46444B1A60BFF35F8FFDF7CCFF019075
:1022D000002803D0814501D0FFF772FD01232A00B9
:1022E0009A4313003C49DB1B5B415943090D93683A
:1022F0009C4208D15AE043001B189B00FB189868C9
:10230000A04211D01A00062010560028F3DA009BD4
:10231000002B05D05A46314B1A602D4B1A60B2E79C
:102320005A462C4B1A60AEE706201856002821DBCF
:102330004200111889007C188846A1689960E179EB
:10234000D97106216156997100291FDBA488F91AF9
:102350006405241544440919E0240905490D2402A3
:102360002143998012181E4B9200BF181A781870DA
:10237000BA71CCE7019800280BD1FF309071194851
:102380009080174A107811709871C0E7BD2109023A
:10239000E7E7154A1549D21A083A5002400D0143A1
:1023A0009980134952080A43DA80B0E70620105694
:1023B00013000028BCDA019A002AEAD14546E0E77A
:1023C000240100D000ED00E0CD0100101C0500202C
:1023D00000E100E080E100E0AAAA000080E200E065
:1023E000B174022000BDFFFF5605002000F0FFFF82
:1023F00000F8FFFFF8B5012504000543FDF733FFA2
:10240000EFF3108C72B6214A1368002BFCD0BFF397
:102410005F8F1F4E2100B7681E4A1F4B891A494122
:102420004B431B0D59B28300F858A8421CD0062319
:10243000D3568B421CD01223D3568B4222D01E235C
:10244000D3568B4220D02A23D35603208B4210D060
:10245000124B1A781970A271BFF35F8F00220B4BD9
:102460001A608CF31088F8BDB2680D48D050EFE7C1
:10247000002043001B189B00D218FF239371094BC7
:102480009380E5E70120F4E70220F2E7240100D081
:1024900000ED00E01C050020AAAA0000B174022093
:1024A000CD01001000BDFFFF054B064A1360064A30
:1024B000136053609360D3601361536193617047FD
:1024C0008080808000E400E004E400E0F0B5C646CF
:1024D000040000B50C2090461F000E0001F030FCF7
:1024E0004101091A8D01691AC9000918890140467C
:1024F00001F026FC069B3F041A0323681743002BB8
:1025000022DB184B184DE21853425A4180235B01DD
:102510009C461203154B62441A60154B1A60110059
:10252000AB689943FBD1C022231D92011A4321239A
:102530002660A06013602368002BFCDA0823E760A4
:10254000136080BCB846F0BD3F2322681340B342FD
:10255000D7D1A3681B051B0D8342D2D1E368002F9E
:10256000CFD1EEE70040FDBF00C0004000E00040DA
:1025700000F000408023024A9B000343D36270476F
:102580000080054010B5140080221B4BD2051A6054
:1025900000281AD00123194A1843194BDA61194A45
:1025A00042401A62596298628022134BD2051A6027
:1025B0001549164A1160E022D2041A60002C07D196
:1025C0008022134B12061A6010BD0D4BD861EBE749
:1025D00063011B1B9A008023121912015B049A42AB
:1025E00000D30C4A0C4B1A60054B5A608022084BF2
:1025F000D2051A60E8E7C04600B00540D3C007B076
:10260000008005402D3FF84FFCFF010008200140ED
:1026100000A00540FFFFFF00546C0020AA23064ADB
:102620001B0113602F230549D360054B19605368C4
:10263000002BFCDA7047C0460040024000B0FA00B0
:10264000006002409A4200D2885470477047C046EA
:10265000F8B557464E464546DE46E0B599460A9BD4
:1026600007009A460D9B8846934615000B9E9B07D4
:1026700010D10C9B9E420DD29D1B14000E005D4498
:1026800022004B46013431002020B847A542F7D143
:10269000B0460B9E002E27D0444675195346AA1B00
:1026A000013E985D21004B46B847002EF6D123002D
:1026B0002C0098460D9B9B070FD55B46E51A0C9B9B
:1026C000AB420AD94646984622004B4631002020AC
:1026D0000135B8470134A845F6D82000F0BCBB4608
:1026E000B246A946A046F8BD2C00E3E7F0B54F4638
:1026F0004646D646C0B584B098460EAB1B78129FAE
:10270000994694460D9C109B119EBA0725D4002E25
:102710004BD19C4200D3BFE001223A4092461F2C8D
:1027200000D9B8E00C9A551E302201E0202C03D0CD
:1027300001342A55A342F9D85246002A0DD0A642A8
:102740000BD9202C44D00C9A551E302201E0202CAD
:102750003ED001342A55B442F9D1FA064DD57A0556
:102760003FD4002C39D10F9B102B00D179E00F9B67
:10277000022B00D18AE030230C9A012413704B46BF
:10278000002B3FD02D230C9A135501340C9B62462D
:1027900000930397434602960194FFF759FF04B054
:1027A000E0BCBA46B146A846F0BD012215003D4046
:1027B000AA463A422FD04A46002A02D10C323A4267
:1027C00000D0013E9C42BAD21F2CABD9202E27D973
:1027D0002024FA06DAD57A0503D4A3422DD0A642E6
:1027E0002BD00F9B102B32D0022B20D0202CCDD001
:1027F00030220C9B1B191A700134202CC6D04B467A
:10280000002BBFD17B070DD43B07BFD520230C9AEB
:1028100013550134BAE79C429FD21F2C00D881E7A0
:1028200020249AE72B230C9A13550134AEE7202C71
:10283000ACD00C9B1B1901343AE0631E012C92D0E2
:102840000F9A102A2AD0022A2FD01C00D0E7BB06EC
:102850000ED4202C9AD00C9B1A19013478231370B3
:10286000C4E7BB060DD478230C9A01241370BFE78C
:10287000202C00D18AE758220C9B1B191A700134B6
:10288000B4E758230C9A01241370B1E70C9A603313
:1028900001241370ACE7202400265EE7023CBA0650
:1028A000E9D40C9A12191C00D8E70C9A92465344AA
:1028B00062221A709AE7C04610B5002800D110BDF8
:1028C00003F0C2F9FBE7C0460B0010B5002802D0A8
:1028D00049681B68984710BDF0B5DE4657464E461E
:1028E0004546E0B59BB09B46249B89469846259B70
:1028F0000B900C924046424619009A4601F0F9FCB2
:10290000002800D0D8E0012240465146774B524281
:1029100001F0EAFC002800D0CEE0012240465146FA
:10292000734B524201F0CAFC002800D0C4E00022E0
:1029300000234046514601F0C1FC002800D0B9E117
:10294000424653460A9209938023289ADB001A4094
:102950000E92289A1A4201D1062326930A9A099BBD
:102960001600134300D0C7E0289B002500261B0556
:1029700000D49BE100230D93269A0D9B9A4200DC24
:102980009FE1D01A431E26938023289ADB001A4326
:102990000023002728920D93279B0024BB4200D9D7
:1029A000DC1B0223289A1A400E92289A134203D065
:1029B0007B427B415B421C400D9B002B07D00A9859
:1029C00009992A00330001F010FC0A9009910022B5
:1029D00000234046514601F071FC002805D08020BC
:1029E00000068446099961440991289A414B0B9D40
:1029F00013400493269B0A9A0293099B0394009226
:102A0000019349465B4628000C9A00F08BF90400BC
:102A1000002F62D0289B220098061F23C0179843DE
:102A2000631C984649465B466530A8470D9B0025C8
:102A3000DA179C18DB0F9A465440013F01E0202D25
:102A400013D00AAA94461F23200063440A210135AB
:102A50005E1901F075F93031317020000A2101F062
:102A60006FF926000400092EE9D8052306930023F8
:102A700004930A330393534605970B9F029312ABBB
:102A8000009342465B46494638000195FFF72EFE0B
:102A90000E9B0400002B20D00C9BC51A279BAB4239
:102AA0001BD91E0022005B46494620200135B8474D
:102AB0000134AE42F6D810E0289B42460493279B8F
:102AC00049460393269B0B98029353460092019329
:102AD0005B460C9A00F026F9040020001BB0F0BC05
:102AE000BB46B246A946A046F0BDC046FFFFEF7FF9
:102AF000FFFFEFFFFFF7FFFF734B099F9C46780036
:102B0000400D604401F008FC704A714B01F08BFBF2
:102B1000704A714B01F060FB3B03704A1B0B1A4378
:102B200004000D00300011006D4B002201F04BFB42
:102B30006C4A6D4B01F077FB02000B00200029006E
:102B400001F04AFB01F000FC0D9001F0E5FB674A43
:102B5000674B04000D0001F066FB0022654B01F09D
:102B60003BFB01F0F1FB644A0600644B20002900A6
:102B700001F059FB040030000D000F9601F0CCFB72
:102B80005F4A604B01F04FFB02000B002000290060
:102B900001F019FB02000B0006000F0001F043FBDF
:102BA000320004000D003B003000390001F014FB3E
:102BB000002210901191544B2000290001F015FBC8
:102BC0000022524B01F008FB02000B0020002900FC
:102BD00001F00BFB00224E4B01F0FEFA02000B004D
:102BE0002000290001F001FB0D00802104003200CB
:102BF0003B000020C90501F0E6FA02000B002000AE
:102C0000290001F0E9FA02000B001098119901F077
:102C1000ECFA0022314B01F0DFFA3E4B0F9C9C4650
:102C200064440022230501F0FEFA05000E000200B4
:102C30000B000A98099901F041FB00280AD00D9B6E
:102C40002800013B31000D930022304B01F0CDFAFA
:102C500005000E00C6270D992B0063318F42BF413E
:102C600028997F420437090500D495E6334300D103
:102C700082E6099C284A2100284B0A9801F02CFB87
:102C8000002808D000222100254B0A9801F016FBED
:102C9000002800D070E6269B002B00D17CE60E9B1E
:102CA0005A1E9341269AD31A269375E600230427C9
:102CB0000D9371E643460A9380231B065344099300
:102CC00042E6002326935FE601FCFFFFFB799F505D
:102CD0001344D33FB3C8608B288AC63F0000F03F3F
:102CE0000000F83F61436F63A787D23F71A3790962
:102CF0004F930A400000E03F1655B5BBB16B024050
:102D0000EF39FAFE422EE63F00002C40000024403E
:102D100000001840FF0300002D431CEBE2361A3F71
:102D200080842E41F0B54E46DE4657464546E0B516
:102D300097B09946209E219F229B834698460791F3
:102D40000C923B0032003000390001F0D2FA00282A
:102D500000D0A9E1012230003900CA4B524201F0F3
:102D6000ADFA002800D0E1E0012230003900C64B66
:102D7000524201F0B9FA002800D0B7E0002230003A
:102D80003900C24B01F0B0FA002800D099E00022CF
:102D900030003900BE4B01F091FA002800D090E0DD
:102DA000002200233000390001F088FA002800D00A
:102DB000B1E000230D93249B5B0501D406239846C4
:102DC00008AB9C461722002430234146624404E0AD
:102DD000013413550139202C01D00929F8D888462F
:102DE0003000390001F0B0FA4346DA00A94B050083
:102DF0009B181A685B680892099301F08DFA02002B
:102E00000B003000390001F0DEF9089A099B01F04F
:102E10000AFA0A900B9101F0BBFA824601F078FAA7
:102E200002000B000A980B9901F0CDF900229A4B91
:102E30000A900B9101F058FA002800D1C0E001235C
:102E40009C46E244504601F063FA02000B000898E9
:102E5000099901F039FA002802D000239A46013579
:102E60004346002B6AD008AB17269C46089566445B
:102E7000554614E001235B4243440A2128009A4648
:102E800000F05EFF013430313719397028000A2113
:102E900000F056FF092D00D8D0E0D0460500202CC8
:102EA000E8D10EAB98460323249A1340012B00D19E
:102EB00096E02023249A01930392239A4346029298
:102EC0001EE0249B58460493239B0096019703938E
:102ED00043460C9A029307994B46FFF7FDFC17B047
:102EE000F0BCBB46B246A946A046F0BD249B5B079A
:102EF0000ED40322694B24990192039123990291E4
:102F0000009358464B460C9A0799FFF7A1FBE6E75A
:102F10000422634BEFE73B0032000020002101F068
:102F200052F9012306000F000D9344E7249B0393FD
:102F3000239B0293042301935A4BE1E7280001F0FD
:102F4000EBF902000B003000390001F03CF9524B64
:102F5000002206000F0001F0B1F90EAB98460028E0
:102F60000AD10022300039004B4B01F0BDF9002896
:102F700002D1EB0700D50135202C94D008AA944645
:102F80001723280063440A2101341E1900F0B0FE03
:102F90003031280031700A2100F0AAFE051EEBD165
:102FA0000323249A1340012B1BD0202C00D180E74F
:102FB0000D9B002B35D02D224146631C0A5579E725
:102FC00000220A980B99344B01F078F9002800D0C0
:102FD00046E75346002B51D101239C46E2443FE78C
:102FE0002024239B002BE0D00D9B002B03D1249A9F
:102FF0000C33134202D0239B013B2393239BA34218
:10300000D3D908AB9C46172230236244202C00D130
:103010004FE72399013413558C42C6D0202CF8D1A8
:1030200047E7249B5B0724D4249A2300120700D48B
:1030300040E72022414601330A553BE75746089DA9
:10304000202C00D12DE7220030214046002F09D04E
:103050000132B154202A00D123E7D3431B191B1896
:10306000002BF5D10EAB98462E234146541C8B54B1
:1030700082E72B224146631C0A551BE7DB0700D47D
:10308000EEE6A9E7FFFFEFFFFFFFEF7F65CDCD4144
:1030900065CDCDC160B804100000E03F68B60410F3
:1030A0006CB6041078B60410249B0393239B029300
:1030B00003230193004B23E774B60410F0B5DE46FA
:1030C0004E4657464546E0B59FB01C00289B9146AA
:1030D0000993C94AC94B8B4608901A60002900D150
:1030E00018E2002320789A46002800D11AE2260030
:1030F0001D005C460AE02A006F1C4B46089D21001B
:10310000A8473D0001363078002870D02528F2D13C
:1031100010239B46083B9A46043B9846023B0021FD
:103120009C46721C107816000300203BDBB2102B6B
:1031300003D8B34F9B00FB589F460300303B092B3D
:1031400032D900230A932A2868D0002398462E28D3
:103150003ED00300683BDBB2122B1CD8A94A9B006F
:10316000D3589F46012301321943DBE763460132FE
:103170001943D7E7434601321943D3E75B4601328F
:103180001943CFE7534601321943CBE780235B0055
:103190007078194301360300253BDBB2532BAAD8C4
:1031A000994A9B00D3589F4600270300B800C019D6
:1031B00001364000C018337830381A00303A070022
:1031C000092AF3D90A901800002398462E28C0D166
:1031D00080237078DB0019430300303B721C092BFD
:1031E00000D8A1E12A2800D1B2E11600B1E7A34638
:1031F000AA462C00D14503D801235B424B449A4692
:103200004B46524659460020089DA84720001FB053
:10321000F0BCBB46B246A946A046F0BD099B40CBD8
:103220000A96002E03DB50780993561C8DE7283848
:10323000014370420A9009935078561C85E778281C
:1032400000D1DFE1582800D14CE26F2800D14FE3D4
:10325000622801D100F030FC10230A009A430B923F
:10326000692801D000F0A9FC0A230C934B0500D576
:10327000D0E10B9A802311009B0019408B461A4223
:1032800000D0A1E2802311005B0019408A461A4257
:1032900000D0B6E313005B0600D5EDE213000999F8
:1032A0001B0601D400F076FC08C91BB2D8171A1807
:1032B000424092B209919346DA0F1292002B09D143
:1032C000802310220B99DB000B4091430B91002BC4
:1032D00000D0E4E20B9A6123920600D541230EA9A7
:1032E0001F228C46DBB262440A3B5F461395A3461D
:1032F00055460C9CB2460D9316000AE03033DBB203
:1033000001357355A74200D2EDE2202D00D1EAE24B
:1033100007002100380000F013FDCBB20929EDD9D8
:103320000D9A94466344DBB2EAE780239B007078F1
:10333000194301362FE77078682800D1CDE180234A
:103340000136194327E770786C2800D1BFE180234C
:103350005B00194301361EE7462800D19BE1072296
:10336000099B0491073393430A9A1900039242463A
:1033700002920CC908980092019309912A004B46C9
:103380002100FFF7CFFC01360500BCE62A006F1CC8
:103390004B46089D21002520A84701363D00B2E696
:1033A0008B0700D4ADE1099B2A009A466B1C984616
:1033B000534601CB21009A46089F4B46C0B2B847FE
:1033C0000A9B9C466544012B00D886E2089B474631
:1033D000B04626004C4699463A002300013731009A
:1033E0002020C847AF42F7D1A14653463400464695
:1033F0000993013687E6C046BD300010506C0020AE
:1034000080B60410C4B6041010B70410099B04CB96
:103410009B4643460992002B00D1C6E013789C4698
:10342000002B00D1BDE34346013B099A0133D0187C
:103430000A9F130001E0834203D05A780133002A27
:10344000F9D1099A0A979B1A0B9380230A00DB0093
:103450001A400C92194204D00B9B434501D94346B4
:103460000B9302231A000A400D920B4200D187E110
:103470006046002800D168E10C9B002B00D10DE1D3
:10348000A844C246099B57465B1B9846089BB24618
:103490002A0026004C46994609E023003100551CBD
:1034A000C8474346585D002800D126E12A009742CC
:1034B000F3D1A1463D00340056460D9B002B00D0B1
:1034C00043E15B46013609931DE6099B1A0008CAD1
:1034D0009246002B48D0212211438B460EA88446E9
:1034E0001F216144099500220F27A4460D0002E028
:1034F000202A0CD00B003C001C4020003730092C47
:1035000000D807380132A85419090F2BF0D86446A7
:10351000099D32E0DC4B2078089300239A4600286E
:1035200000D0E4E5002465E6434606000A9F9800C3
:10353000C01801324000801916780300300030387E
:10354000303B0928F3D93000984616000A9700E668
:10355000099B023604CB9046D2434046D217104016
:10356000804609933078F4E5102208009043113228
:103570001043834600224905B0D55B4606930823D5
:10358000059343460493102303930023029316AB41
:10359000019200932A004B4621000898FFF7A6F8F5
:1035A0005346050001360993ADE513789C46002B80
:1035B00000D1F7E202235B4237E7202302009A435F
:1035C000472A04D180231B0119430223984345282D
:1035D00001D1202319430722099B04910733934308
:1035E0000A9A19000392424602920CC90898009266
:1035F000019309912A004B462100FFF76DF901362E
:10360000050080E510230C930C230A009A430B92CB
:103610004B0503D501230B9A9A430B92692800D1DD
:1036200027E6642800D124E60B9A802311009B0032
:1036300019408B461A4200D066E1802311005B00DE
:1036400019408A461A4200D039E213005B0600D5C1
:103650003CE113001B0600D4A6E2099B04CB120434
:10366000120C934609935B46002B00D09AE10B9A0B
:103670001033110099430B91520500D492E10023BD
:103680009A460B9B06930A9B0593434604930C9B17
:10369000039300230CE12023194360E6099B0A9A57
:1036A0005B1B98464B4691461F00B2462600089C7D
:1036B0002A003B003100A04743460135585D0028F1
:1036C000F6D14A463400B94656460A92F5E6C0237A
:1036D0009B00B078194302365DE5C023B0781943EA
:1036E000023658E50C230A009A4314331A43103B60
:1036F0000B920C934B058DD496E7A14634005646A9
:10370000DBE60A9A012A00D853E26B1E9F18089B39
:10371000B04626004C4699462A0023000135310068
:103720002020C847BD42F7D1A14634004646099B38
:103730003A0001CB210098467D1C4B46089FC0B241
:10374000B847434601360993DDE40B9B0A9AA84625
:103750009A4200D8B5E694466544ED1A089B474660
:10376000B04626004C4699463A0023000137310006
:103770002020C847AF42F7D1A14634004646A0E614
:103780000B9A0A99531C914200D814E24B199B1AC8
:103790001F00089BB24626004C4699462A0023008B
:1037A000013531002020C847BD42F7D10A9BA14610
:1037B00001330B93099B34001B7856469C466046A8
:1037C000002800D058E67CE60722099B0733934384
:1037D000013294469C4462465F6809921A68FB175E
:1037E0001093119310981199030053400E930B00FE
:1037F0007B400F9394460E9A0F9B121A8B410E92A8
:103800000F93FB0F6246129300233A439B463DD031
:103810000B9A6123920600D541230022DBB20EA948
:103820000A3B8C4692460D9343461F3262441395E1
:10383000159655460E9E0F9FA24690460C9C1493DB
:103840000CE03032D2B2434601355A55BB4500D167
:103850008AE1202D00D18AE106000F00220000231A
:103860003000390000F0AEFAD2B2092AE9D90D9B36
:103870009C466244D2B2E6E7FF23099904C913408B
:103880001A00099117E5C0464D2600100B9A103317
:10389000110099430B915205BAD500239A460B9B10
:1038A00006930A9B0593434604930C9B0393129B38
:1038B00002935346019316AB2A00009321004B4616
:1038C0000898FEF713FF013605001CE4FF22099B50
:1038D00002CB11408B460993C5E6534645460993F2
:1038E0000136FFF710FC56465C46AA46139DD6E704
:1038F00008230C930B910B99642800D084E60B9B52
:103900005B0500D586E6B4E40722099B07339343A1
:10391000013294469C44624609921A685B68100022
:103920009B4613005A46134307D10B9A10331100DC
:1039300099430B91520500D5A1E60B9A612392069B
:1039400000D541230022DBB20EA90A3B8C469246E9
:103950000D9343461F3262445F461295A346554677
:103960000400B24690460C9E13930DE03032D2B262
:10397000434601355A550023BB4200D100E1202DBA
:1039800000D100E104000F003200002320003900C4
:1039900000F018FAD2B2092AE8D90D9B9C4662447D
:1039A000D2B2E5E70B9A6123920600D54123DBB240
:1039B0000EA90A3B1F228C460D93230062445C46ED
:1039C0001295170055469B46B2460C9E08E03033D0
:1039D000DBB201357B55B4420ED3202D0CD0040050
:1039E0003100200000F0ACF9CBB20929EFD90D9AD3
:1039F00094466344DBB2ECE756465C46AA46129D09
:103A00003FE6099B1A0008CAD91713925A184A4070
:103A10009246DA0F1292002B08D1802310220B99C4
:103A2000DB000B4091430B91002B2BD10B9A6123B0
:103A3000920600D541230EAA1F279446DBB20A3B0B
:103A40000D9567445D460993A3465446B2460C9EC5
:103A500008E03033DBB201357B55B4420ED3202D64
:103A60000CD004003100200000F06AF9CBB2092923
:103A7000EFD9099A94466344DBB2ECE756465C46BC
:103A8000AB460D9D0B9B2A0006930A9B21000593D4
:103A9000434604930C9B08980393129B01360293B0
:103AA0005B46019316AB00934B46FEF71FFE139B3C
:103AB00005000993FFF727FB02230C931AE7099BE4
:103AC00004CB92461293002A08D1802310220B992E
:103AD000DB000B4091430B91002B2BD10B9A612300
:103AE000920600D541230EAA1F279446DBB20A3B5B
:103AF0000D9567445D460993A3465446B2460C9E15
:103B000008E03033DBB201357B55B4420ED3202DB3
:103B10000CD004003100200000F012F9CBB20929CA
:103B2000EFD9099A94466344DBB2ECE756465C460B
:103B3000AB460D9D0B9B2A0006930A9B2100059323
:103B4000434604930C9B08980393002302935B461F
:103B5000019316AB00934B46FEF7C8FD129B050080
:103B600009930136FFF7CFFAB44200D871E6149BEF
:103B700054460E960F97AA469846159E139D8EE6BC
:103B8000A64200D8FBE6139B56469846AA465C46DA
:103B9000129D76E508C9D8171A1842400991FFF717
:103BA0008AFB00230B9350E4099B04CB93460993B3
:103BB00059E52F00BBE50B9301E6063B0C939AE613
:103BC0000EB4012210B585B007AC08CC01000094FA
:103BD000524204480394FFF771FA05B010BC08BCC8
:103BE00003B01847452600100CB410B584B006ACDD
:103BF00008CC0A000094010004480394FFF75EFA21
:103C000004B010BC08BC02B01847C04645260010DE
:103C100000B583B0009313000A0001000248FFF7CB
:103C20004DFA03B000BDC0464526001000B585B072
:103C30000391012102900093034813004A4202A914
:103C4000FFF73CFA05B000BDC928001010B5094ABD
:103C50000300146884B0002C08D0012200910648AB
:103C6000524203A9A047012004B010BD02F03CF865
:103C70000020F9E7506C0020B92800100148042109
:103C8000014B184770050020AD3C0010142310B5FF
:103C90000100188804331B88984710BD162310B5FF
:103CA0000100188802331B88984710BDF8B54746B5
:103CB000CE4680B50F1E19D0142399460433040054
:103CC0000025012698464B461888434621681B88E4
:103CD000984701C4431E9841013540420640AF4217
:103CE000F1D13000C0BCB946B046F8BD0126F8E7B6
:103CF000124A936F9B0815D29066D166002905D0B1
:103D0000FFE7FFE7FFE7516F106F704704B58021B1
:103D10000906C2175140002800D0C84347F098F95F
:103D2000002104BDF0B5146E556E576F166FFFF786
:103D3000E3FF1466556657671667F0BD000000D0B4
:103D4000114A936F9B0813D210665166002905D063
:103D5000FFE7FFE7FFE7516F106F704704B50028DA
:103D600001D00020C04347F073F9002104BDC046D4
:103D7000F0B5146E556E576F166FFFF7E5FF1466BA
:103D8000556657671667F0BD000000D094464E4A4E
:103D9000926F9208624601D230E0C046F0B54A4EBA
:103DA000B56F6D08FCD3346E756E776F366F00F0AB
:103DB00025F89446444A1466556657671667624666
:103DC000F0BDC0469446404A926F9208624601D2C6
:103DD00058E0C046F0B53C4EB56F6D08FCD3346E6C
:103DE000756E776F366F00F04DF89446364A14665C
:103DF0005566576716676246F0BDC046002B24DB48
:103E000011D000293EDA00B5C943404200D101314A
:103E100000F038F8C943404200D10131DB4352423F
:103E200000D1013300BD002AEBD1002801D10029C7
:103E300005D00020C90FC90701D1C043410800B512
:103E400047F0EEF80022002300BD00B500290ADB90
:103E5000DB43524200D1013300F014F8C943404221
:103E600000D1013100BDC943404200D10131DB43E3
:103E7000524200D1013300F005F8DB43524200D139
:103E8000013300BD002923D1002B18D1002A0CD00A
:103E9000BC460D4F38667A6600210023FFE7FFE736
:103EA000FFE77A6F386F67467047002801D00748F0
:103EB000010000B547F0B4F80022002300BD020065
:103EC0000B00002000217047000000D0FFFFFFFF23
:103ED000002B00D0BFE0130C28D1002AE7D080B41B
:103EE000114F39667A66FFE7FFE730B4040C7B6F49
:103EF000396F1B0423433B667A66FFE7FFE7FFE762
:103F0000C04684B27B6F3D6F1B0423433B667A66D9
:103F1000FFE7FFE7C04600232C042D0C7A6F386FB3
:103F200000196941B0BC7047000000D0F0B594465C
:103F30000025140E01D112020835140F01D112010F
:103F40000435940F01D192000235D40F01D15200F3
:103F50000135D40B0134254F7C66254C3C660E0C94
:103F600093B2FFE7FFE7FFE73C6F6643360C77034A
:103F7000BE467343DF0B5B04C01AB941130C734395
:103F8000DB18C91ACE086643360CB64493B27343A5
:103F90001F0F1B01C01AB941130C73431F0B1B05E4
:103FA000C01AB941860D8F023E436643360C092D77
:103FB00024DB520A7243801A7703460A6643360CA2
:103FC00016235B1BDE40DF40BF1964466643821B3D
:103FD0007046043506330100D940A840C01900D30B
:103FE0000131A24206D20023F0BD0000000000D043
:103FF000FFFFFFFF121B0130F3D3F1E709277F1BFF
:10400000FE406446A2B27243801A00D20139220CEB
:104010007243130C1204821A99410B007046043546
:1040200013370100F940A840801900D30131002B5B
:1040300002D1A2420AD2F0BD013000D30131121BDD
:10404000FAD2013BF8D1A24200D2F0BD013000D338
:104050000131121BF7E7F0B51C0C00D080E00CB466
:1040600000251C0A04D11B02160E33431202083528
:104070001C0B04D11B01160F3343120104359C0B9A
:1040800004D19B00960F334392000235DC0B02D122
:1040900092185B4101351C00971864410134464F6A
:1040A0007C66464C3C660E0CFFE7FFE7FFE7C04628
:1040B0003C6F6643360C7703BE4697B27743C01B0E
:1040C00000D20139C01B00D201399FB27743C91B0E
:1040D000C91B170C77437E04FF0B801BB941CE0828
:1040E0006643360C0C2D33DBB644120B1F053A43E6
:1040F0001B0B97B27743C01B00D201399FB27743A5
:10410000C91B170C77433E043F0C801BB941860D39
:104110008F023E43664329277F1BFE400C3D7746B6
:10412000AF40BF1930BCA2B2ABB272437343801A26
:104130009941220C7243130C1204801A9941020017
:104140000B000137001BA941F9D2781E0021F0BDF8
:104150000C277F1BFE4077467F0BAF40FF19E0E73F
:1041600000245D1C07D0144F7D663966FFE7FFE72A
:10417000FFE7FFE73C6F95B29EB265436643401B85
:10418000B141150C1E0C6543664336042F0C3E43AB
:104190002D04401BB141994204D202000B002000C3
:1041A0000021F0BD01D19042F7D3801A994101342A
:1041B0009942F2D3F6E70000000000D0FFFFFFFFB6
:1041C00048404140484018B41B4B5B68FC46019393
:1041D00008BD04DF6F4F001018B4174B1B68FC4676
:1041E000019308BD00DF794F00109446134A926F87
:1041F000920809D2624618B40F4BDB68FC46019363
:1042000008BD0CDF315200100C4AF0B5146E556E2B
:10421000576F166F6246FFF7EEFF084A1466556641
:1042200057671667F0BD18B4034B9B68FC460193B3
:1042300008BD08DFD5500010B01A0020000000D0E3
:10424000FFB550404240504059404B40594000E07B
:10425000FFB5154F4C00640D03D0BC4204D10C03D4
:1042600014D80020090D09055C00640D03D0BC4280
:1042700004D11C030AD800221B0D1B0501264B404C
:1042800009D44B4003D58B4200D18242FFBD9942F5
:10429000FCD19042FFBD0B43DB1803431343F5D021
:1042A000C9434918FFBD0000FF07000000B5FFF734
:1042B000CFFF01D0002000BD012000BD00B5FFF7F9
:1042C000C7FF804100BDC04600B5FFF7C1FF01D95F
:1042D000002000BD012000BD00B5FFF7B1FF01D9EE
:1042E000002000BD012000BD00B5FFF7A9FF8041FF
:1042F00000BD012040054A00121804D85A001218C7
:1043000001D800207047012070470020704700004E
:104310000021002805D17047C1174840401AFAD043
:10432000C90713B5064B1B6898470CBC441CA24038
:104330001005120B0349091B09051943114310BD50
:10434000F07200201F04000010B54C00620D8023A5
:10435000D218DB00D21A5B057E2A10DD9E3A13DAF2
:10436000CC170903490819435242D1406400013473
:104370001532202A05DAD0400843604310BD0020E2
:1043800010BD0846604310BDC80FC018013810BDED
:1043900018B4044B5B6AFC46019308BD24DFE1536B
:1043A00000100000B01A002018B4044BDB6DFC466E
:1043B000019308BD5CDF795400100000B01A0020A2
:1043C00018B4044B5B6EFC46019308BD64DF715466
:1043D00000100000B01A002018B4044B5B6FFC46BC
:1043E000019308BD74DFF15300100000B01A0020E3
:1043F00018B4044BDB6CFC46019308BD4CDFB1558F
:1044000000100000B01A002018B4044B1B6DFC46CD
:10441000019308BD50DF4D5600100000B01A002077
:10442000132370B51D78012D15D010DD1C48FFF742
:1044300035FC1C4C01008022200001F0EDFA022D19
:1044400006D01948FFF722FC184B186070BD154CB8
:10445000174BA364F5E7164B124C23606360A3600F
:10446000E36023616361A361E36123626362A3622A
:10447000E36223636363A363E36323646364A3640A
:10448000E36423656365A365E36523666366A366EA
:10449000E36623676367A367E367A364D1E7C04666
:1044A00053440000B01A00204C330000F07200208A
:1044B0003D4F0010F0B546464F46D646C0B54E00BB
:1044C0001D00730D99468B4B14004B4498464B4688
:1044D00088B0002B30D0884B99452DD04B46002218
:1044E000864FFF1A3B0580185941FFF78DFF844A1C
:1044F000844BFFF77AFE0022834B06000F00FFF784
:10450000F3FE002826D14346002B31D000222000A4
:1045100029007E4BFFF7E0FE002832D10022200068
:1045200029007B4BFFF7D0FE002835D04346002002
:10453000002B2ADB002129E0FFF766FF704A714B50
:10454000FFF753FE0022704B06000F00FFF7CCFE72
:104550000028DBD0300039006E4B0022FFF733FE1D
:104560006D4B06004B44984643460F00002BCDD1BF
:1045700022002B0030003900FFF755FE00F0F6FA5C
:1045800004E043460020002BD4DB644908B0E0BCC3
:10459000BA46B146A846F0BD2000290000F04CFA0A
:1045A0000B0002002900200004920593FFF70BFE88
:1045B0001A220290039100F019FA00F03DFA0B0064
:1045C0000090019149000200490D0BD04A488142F8
:1045D00008D000201A2900DC81E051498018594197
:1045E0000090019104980599FFF7AEFE824640467F
:1045F000FFF792FE009A019B04900591FFF713FECE
:1046000004000D0000F018FA0A00010013000691E2
:104610000792020029002000FFF7D5FD009A019BB8
:1046200004000D0002980399FFF7CDFD049A059B45
:10463000FFF7F9FD22002B00FFF7CEFD009001915E
:104640005046FFF769FE32003B00FFF7ECFD040027
:104650000D0000F0F1F90A00010013000491059229
:10466000020029002000FFF7AEFD009A019BFFF732
:10467000B3FD04000D000298039932003B00FFF7E0
:10468000D2FD22002B00FFF7A7FD00F06FFA4E00CD
:1046900004000D00760D00D178E7174B9E4200D143
:1046A00074E706980799534647465F43FFF74CFE69
:1046B000C71904980599FFF747FEC0198319002B05
:1046C00009DD184A93420DDD144AEB0FDB071A434C
:1046D000002011005AE7EB0F0020D90756E7DB0F47
:1046E000D9077DE70022030512196B41100019005C
:1046F0004CE7C04601FCFFFFFF070000FF0300007E
:10470000EF39FAFE422EE63F0000E03F0000B040E5
:104710000000B0C00000F03F02FCFFFF0000F07F8F
:10472000000060FEFE070000F8B54E464546DE4636
:1047300057460400E0B50D001600012A5FD0D70FE0
:10474000BF187F10012F50D00323D21713409B199D
:104750009B109846012B3ED0072313409B19DB107A
:104760009946012B30D00F2313409B191B119A46F9
:10477000012B1ED01F2313409B195B119B46012B5D
:104780000CD03F231A4092199211FFF7CDFF0B0076
:104790000200FFF748FD5B46DB073BD40B0002003D
:1047A000FFF741FD5346DB0703D522002B00FFF73F
:1047B0003AFD0B000200FFF736FD4B46DB0703D541
:1047C00022002B00FFF72FFD0B000200FFF72BFD4F
:1047D0004346DB0719D40B000200FFF724FDFB075B
:1047E00003D522002B00FFF71EFD0B000200FFF790
:1047F0001AFDF30703D522002B00FFF714FDF0BCD0
:10480000BB46B246A946A046F8BD22002B00FFF7E2
:104810000AFDE0E722002B00FFF705FDBEE7C046DA
:10482000F0B54F464646D6469146C0B59846060076
:104830000F0004000D1E46DA5A00654B20219C46ED
:104840003423520D62449B1A49425E1800D5A1E000
:104850001F31B1400120404298404F468743380005
:1048600047468F43002E00DA8CE04146F140012696
:104870003140002A1EDB002B4EDB38435BD1002980
:1048800007D008E0802221001206AA180C00151E8D
:1048900017DA342BF6D180263606434620004A46E6
:1048A000A919FFF7BDFF8B191900E0BCBA46B14644
:1048B000A846F0BD802322001B06EB1814001D1E25
:1048C000F8DB26002F0048464146FFF73DFD6B0010
:1048D000824602005B0D3DD03E498B423AD029030F
:1048E000090B0C4336D13C4A904268DB802212010E
:1048F000904262DA364A944663445843374BC318B1
:10490000002B5EDD364A93425EDC03050022002068
:10491000344980185941C8E7802322001B06EB1850
:1049200014001D1ECDDA802322001B06EB18140094
:104930001D1EF1DBC5E7802322001B06EB181400C7
:104940001D1EBEDA802322001B06EB1814001D1E5C
:10495000F1DBB6E75346002B25D02033402B25D87A
:104960005346002B09DA32003B0000201D49FFF7B7
:104970003CFC534606000F005A4230003900FFF756
:10498000D3FE92E720214646C91A8E404946D940B7
:1049900031436CE70121202049420F00C01AC74073
:1049A0009940394356E700200E497EE74A46434680
:1049B00030003900FFF77EFD77E706489AE71000E0
:1049C00094E70020002170E7002007496DE7C0460A
:1049D00001FCFFFFFF07000000F8FFFFFF030000DE
:1049E000FE0700000000F03F0000F07F4B0070B5B4
:1049F0005B0D04000D00002B0ED00C4EB3420BD00B
:104A0000D318002B09DD0A498B420ADD094AEB0F56
:104A1000DB071A430020110070BDCB0F0020D9071F
:104A2000FAE70020110500196941F5E7FF070000CA
:104A3000FE0700000000F07F254A4B0094465B0D06
:104A40006344F0B504000D005A1C24DB5A1C38D016
:104A50003422D21A002A1DDD3322D31A533A9A186F
:104A60001DD401269640310001269E4030002418B6
:104A70004D41002A1FDB02269640310002229A4057
:104A800010002600002342428B412C0016401C409F
:104A900030002100F0BDCB0F0020D907FAE7202617
:104AA0000127F61AF74001269E40390030002418ED
:104AB0004D41002ADFDA20220226D21AD6403100E8
:104AC000DCE7CB0F034ADB071A4300201100E1E7C4
:104AD00001FCFFFF0000F03FF0B5C6460B000D00E3
:104AE00049000200040000B5490D30D01D480918E6
:104AF00027D43426711A8846464610001900002E25
:104B00001CDD20214942771825D40126BE40310002
:104B100001274646B7403800002B06DA01246442DC
:104B2000E517A4185D4124184D41002342428B41F2
:104B300026002C0016401C403000210080BCB846E6
:104B4000F0BD00200021002BF8DA0749F6E7DB0F63
:104B50000020D907F2E72027BF1B0126FE403100C5
:104B6000D6E7C04601FCFFFF0000F0BF264B70B542
:104B70000A0D05000C009A423AD00022234BFFF7A1
:104B8000A3FB002834D1002228002100204BFFF78E
:104B9000A3FB002802D000201E4970BD2800210080
:104BA000FFF74AFFFFF7D0FB0600FFF7B5FB020057
:104BB0000B0028002100FFF706FB174B174AFFF7F1
:104BC00032FBFFF715FC4B0004000D005B0DE4D039
:104BD000134A9342E1D0F318002B0CDD114A9342A3
:104BE0000DDDCB0F0B4ADB071A4300201100D4E781
:104BF00000200021D1E7CB0F0020D907CDE700200E
:104C0000310500196941C8E7FF0F00000000B0C07E
:104C10000000B0400000F07F422EE63FEF39FAFE80
:104C2000FF070000FE070000F0B5D6464F46464697
:104C3000C0B517001E000022B84B05000C00FFF79E
:104C400035FBAC46230000283CD1330D99465B056B
:104C50005A0D9046002B3CD0002228002100B04B7A
:104C6000FFF724FB002838D0AE4B984531D099454A
:104C700000D176E0AC4B994500D16CE04346AB4A9D
:104C80009B1800D56DE0A6483422D31A9C46002B11
:104C900010DD543A991800D5F8E01F328A400121FE
:104CA0006346494299403B008B43310091430B439B
:104CB00000D001E133003A0028002100FFF7B0FDE9
:104CC00084460B0060461900E0BCBA46B146A846CF
:104CD000F0BD00239C46914BF4E7220D53052000C4
:104CE000590D002B2AD14346904A002E3DDB9B18DC
:104CF00031D43421C91A2ED420235B425B18984644
:104D000060D4012342465B429340012252428A40D2
:104D100038009043020030009843030013431AD137
:104D2000AC4623003429CDD04346002B00DA9DE069
:104D3000DE40F3070FD5AC462300C3E7794B9A4614
:104D40009A4248D100239C46002EBBDB784BB9E742
:104D5000784B994205DC00239C46B3E7754B99429A
:104D6000F9DC00239C46724BACE79B18F9D4342243
:104D7000D31AF6D4543A98181BD41F32824001211A
:104D8000494299403D008D432900350095432A0052
:104D90000A43E6D1342B04D000286FDBC640F3076A
:104DA000DFD500226249E40FE40721430B0094465B
:104DB00088E70122202152421500C91ACD409A40AD
:104DC0002A43DCE7012320225B421800521AD0401C
:104DD0008B40034399E7544B9A4262D14346534A6E
:104DE000002E20DB9B18BCD43422D31AB9D4543AF9
:104DF000981876D41F3282400121494299403C00E4
:104E00008C4321003400944322000A43A9D1342B5F
:104E100000D17FE0002875DBC64000239C46F307E5
:104E200094D5454B4EE79B1895D43422D31A92D48F
:104E3000543A98184CD41F3282400121494299407B
:104E40003C008C4321003400944322000A4300D0EC
:104E500081E7342B05D000284CDBC640F30700D493
:104E600079E700239C4680231B062BE720235B1A4F
:104E70009E4033003E00CE401E435AE72022D21A05
:104E8000964032003E00DE40164388E70122202192
:104E90005242C91A1300CB40190063469A400A4394
:104EA000FDE6D14500D153E7994500D156E7434689
:104EB0001E4A9B1800D4E7E6002800DA51E73300C9
:104EC0003A0028002100FFF7F5FA84460B00F9E6C6
:104ED0000122202152421400C91ACC409A40224398
:104EE000ABE70122202152421400C91ACC409A405B
:104EF000224381E72022D21A964032003E00DE4053
:104F00001643ABE72022D21A964032003E00DE4024
:104F1000164382E700239C46074BD3E60000F03F90
:104F20000000F0BFFF070000FF0F000001FCFFFFC3
:104F30000000F07FFE0300000000F0FF07B56046B0
:104F400001880A0A0230DF2AFAD1C9B2820804D3E2
:104F5000028840880004104300E00068014A505075
:104F6000039007BDB01A00200FB403BC0CBCF0B511
:104F70000124E407634000E0F0B50C0DCF0F661E7E
:104F80003605891B640503D3C943404200D3013170
:104F9000640D03D0661CF60A07D0E41B00207F00D6
:104FA000791C89078912803C24031D0DDF0F6E1EBA
:104FB00036059B1B6D0503D3DB43524200D30133FF
:104FC0006D0D03D06E1CF60A07D0ED1B00227F008A
:104FD0007B1C9B079B12803D2D032F1B661B58D407
:104FE000A446202E46DA20371400BC401D00BD40E8
:104FF000F24033412A4380185941CB0F05D0C943B1
:10500000C043002264425041514162464D0D28D1B7
:105010000D0D07D100281FD0241940414941013A04
:105020000D0DF9D0640006D3013000D30131002CFE
:1050300001D140084000013A0BD4941CE40A04D189
:1050400012051144DB071944F0BDD907204B194361
:1050500000E0D9070020F0BD0029DDD1002CDBD114
:10506000F0BD0132C6074008CD0728434908002E8D
:10507000E1D0D9E73C2E29DA203E40371400BC406D
:1050800000D00124F24014431A00BB401C43D31744
:10509000ACE7AC46202F08DA20360400B4400D00FF
:1050A000B540F84039412843A5E73C2F0CDA203FB2
:1050B00040360400B44000D00124F8400443080006
:1050C000B1400C43C117EAE710001900002494E72F
:1050D0000000F07FF0B50C0D661E3605891BE60A50
:1050E0006405640D02D0651CED0A04D00020012186
:1050F0000905803C2403A4461C0D671E3F05DB1BED
:10510000E70A6405640D02D0651CED0A04D0002294
:1051100001231B05803C24037740644497B484B288
:1051200096B27443070C7E43150C6F4380B26843FC
:10513000361802D3012000043F183004350C001942
:105140007D41844688B29AB250430C0C62431F0CD6
:105150007C438EB27E43921902D301263604A419F1
:105160001604170C3618674101BC81B29AB251433C
:10517000040C62431B0C5C4380B25843121802D3E8
:105180000120000424181004130C401863412D184A
:105190005E410020474106BC88B293B258430C0CD4
:1051A0006343120C544389B251435B1802D301216B
:1051B0000904641819041A0C091862416D18564143
:1051C0000020474118BCF902720D1143F0026A0D2C
:1051D0001043ED020A0D03D16D1940414941013BD5
:1051E000124E9B1B7600B3420ED26D0007D30130E6
:1051F000002671416646354301D1400840001B0539
:10520000C918E4072144F0BD0BDA013306D101309F
:1052100004D101314F0D01D04908F2E7E107002028
:10522000F0BD013631050020EBE70000FF03000070
:10523000F0B51C0D671E3F05DB1BE70A6405640D16
:1052400002D0661CF60A04D0002201231B05803C14
:105250002403D0252D060026F6432E661E096E6611
:10526000CE0FF619B44649004F0D02D07E1CF60A47
:1052700003D000200021403F3F033E1BB600B44452
:10528000013F7F05C91B49082E6F013676089C0235
:10529000950D25437543ED137543AD1301356D1021
:1052A000F603761B0CB4CC02450D2C43A2B2B3B26C
:1052B0005A43270C7B43350C6F43A4B26C431B1934
:1052C00002D3012424043F191C041D0CA4187D41A1
:1052D00024196D41009A91B2ACB26143170C7C4322
:1052E0002B0C5F4392B25A43A41802D3012212043A
:1052F000BF182204230C52187B41019C6C431B19DC
:10530000520ED9010A434401A01A81B2B2B25143EC
:1053100003145A43360C734387B27743D617D21916
:1053200000277E4136049B191704160C7F185E4136
:105330007316ED18F301002680337541A90F06D1CD
:105340006400690AE8055B0A184309D22FE00422C9
:10535000944480337541A90AA8059B0A184326D3B3
:10536000404149412404009A019B0D005543641BB0
:105370004343E41A95B286B27543170C7E43030C7F
:105380005F4392B25A43B61802D301221204BF18E7
:105390003204330C52197B4152429C41002C02D4FE
:1053A0000022013051414008CA071043490802B0A9
:1053B0006246D7079210084BD218084B9A4203D284
:1053C00012058918C919F0BD0020002A01DC390036
:1053D000F0BD01331905F5E7FD030000FE070000ED
:1053E000002200B5203200F004F8080000BD0000E3
:1053F00000220B150AD410B5944600F079F8141465
:10540000013400DA0021CB17144C20470020002182
:1054100070476244343A0CD40C2A07DA04009140F5
:10542000904052422032D440214310BDD843D9434A
:1054300010BD203207D40C46944052422032114114
:10544000D040204310BD0800C917203203D4524277
:105450002032104110BD1800190010BD1354001067
:1054600000210A00002104E000210A00C11704E025
:105470000022002306E0C0460022CB1758405940C6
:10548000C01A994130B5184CA21A002903D1010065
:1054900010D00020203A4C1512D104D2013A001845
:1054A00049414C0DFAD3114CA24204D2120589187D
:1054B000DB07C91830BDD243520D00200021F5E7AB
:1054C00003D4013A00184941FBD50B324405C00A08
:1054D0004D052843C90A640003D00024604161419E
:1054E000E1E7E0D34408F8E732040000FE070000DB
:1054F0000A0DCC0F531E1B05C91A520503D3C9430D
:10550000404200D30131520D03D0531CDB0A07D0B7
:10551000121B00206400611C89078912803A120363
:10552000014BD21A70470000FF030000023225D45D
:105530000C2A1CDA1125AD1A0B002B410832073555
:105540000600EE40904091403143F0CC63431A1581
:1055500000235A41554356435743BF02F412760580
:1055600076196741ED177F19801BB94170470C22EE
:105570000020C917490001310905DBE70902030EC4
:10558000194300025342203208D40C0019419440C0
:10559000D840204300225041514170470800C917AC
:1055A000203B2032F1D5002000210022704700006E
:1055B000F0B5FFF79DFF54A4FFF7B8FF002904DA08
:1055C000204C214D00196941013A04B4012752A62B
:1055D000002201239B0730CEB446001BA9410BD407
:1055E0007E4220361D003D411C00B4401600FE40A6
:1055F000344362416B4101E000196941664601375D
:10560000212FE8D185B29EB2754307147E43190C51
:105610004F4384B24C43F117361900246141090409
:105620007F183404310C64197941A40F8800204399
:1056300089178018594104BC52423E32FFF71DFFC2
:10564000F0BD00006BDE73F4FD855C2CF0B54F00FF
:1056500050D27F154ED001374FD0FFF749FF04B429
:105660004902C20D1143400201272BA6B446002275
:1056700000237E4220360D003D410C00B440060060
:10568000FE40344344414D41AE0F05D12000290076
:10569000664630CE121BAB410824A4440137212FAB
:1056A000E7D18900891012184B4180BC17A413CC94
:1056B0000137784379437C434F05C912CD17C01990
:1056C0006941A702A415CD17C9196C41DD178018CF
:1056D00059416C413E22CD17AC4208D000090E075B
:1056E00030430909260731432411043AF3E7FFF751
:1056F000C4FEF0BD02490020F0BD02490020F0BD0B
:105700000000F0FF0000F07FAAB800006BDE13007D
:10571000A3EF0F0021170B00F34B98BFEC23F319F5
:10572000D6104DCDE3FB470E7AB9BC8ADBC18907A1
:10573000CC542C021846E103053083E7B029F80168
:105740001E1FE0874505FE00249E41ACA9807F0016
:105750008117624515E03F00E610ABA902F81F0073
:105760008858455500FE0F00C4AAA90A80FF07000B
:1057700056455501E0FF0300ABA92A00F8FF0100E0
:1057800045550500FEFF0000AAAA0080FF7F00002B
:10579000551500E0FF3F0000AB0200F8FF1F0000BE
:1057A000550000FEFF0F00000B0080FFFF07000008
:1057B0000100E0FFFF0300000000F8FFFF01000010
:1057C0000000FEFFFF0000000080FFFF7F000000E0
:1057D00000E0FFFF3F00000000F8FFFF1F00000097
:1057E00000FEFFFF0F00000080FFFFFF070000002A
:1057F000E0FFFFFF03000000F8FFFFFF01000000D3
:10580000FEFFFFFF0000000000000080000000001D
:10581000000000400000000051434343C9188C467B
:10582000110C83B24B4310B4040C614392B280B2AA
:10583000504362431C041B0C001910BC5941130453
:10584000120CC0185141614470470000484041406B
:1058500048400E4B5B6818470C4B1B6818470C4AB6
:10586000936F9B0802D2094BDB681847F0B5146EA2
:10587000556E576F166FFFF7F6FF054A14665566AB
:1058800057671667F0BD014B9B681847B01B002097
:10589000000000D0C10FC90700D54042002817D032
:1058A000F44603B40B4B1B68984706BC81409E38F6
:1058B0004042803107D20B0607D04900490AC00593
:1058C0001043084360470130F8E7490A8902F5E7C9
:1058D00070470000F0720020034BDB6FFC46184756
:1058E0007CDF7D5900100000B01B0020132310B591
:1058F00012481C78FEF7D2F90100012C0AD003DD12
:1059000080220F4800F088F80E48FEF7BFF90E4BD2
:10591000186010BD0A4C5422200000F07DF80B4B9B
:105920006365A365E36523666366A366E366236731
:105930006367A367E3672362E361E5E7534600001B
:10594000B01B00204C330000F072002051590010B1
:1059500007B5604601880A0A0230DF2AFAD1C9B2C7
:10596000820804D3028840880004104300E00068E5
:10597000014A5050039007BDB01B0020C30FDB0746
:1059800041000A0E07D0FF2A08D00909054A8918E4
:105990001943400770471900002070470249C91891
:1059A000FAE70000000000380000F07F10B50400A6
:1059B00040F0B2FA002804D0034B04199C4200D8EE
:1059C00010BD0248FCF7E4F900000420B0B8041050
:1059D00010B50C003FF0D6FF002804D0034B04198B
:1059E0009C4200D810BD0248FCF7D2F90000042008
:1059F000B0B8041010B540F099FA10BD0148042168
:105A0000014B184780050020AD3C0010014B1B687E
:105A10001847000080050020014B5B681847000014
:105A200080050020030010B5080011001B6898478E
:105A300010BDC046F0B546464F46D646C0B5437C7D
:105A400080460E001700002B46D0002A3FDD4B1E7B
:105A50009946244B0125002400209A460DE04B4630
:105A60001B5D0D3B5A425341325DDBB20A2A0BD01B
:105A70002B00013401359F421ADD002CEFD1434643
:105A8000325D1B7C0A2AF3D1002BF1D1A04204DA4B
:105A90004346211A1B6830189847434650461B68F6
:105AA00002219847013428002B0001359F42E4DC95
:105AB000874204DD4346391A1B6830189847F619A7
:105AC000013E33780D3B5A42534142461374E0BCC9
:105AD000BA46B146A846F0BD0368110030009847A9
